:020000040800F2
:1000000000000220DD2900082D2A00082D2A000802
:100010002D2A00082D2A00082D2A000800000000C3
:1000200000000000000000000000000001080008BF
:100030002D2A000800000000C1090008090A000874
:100040002D2A00082D2A00082D2A00082D2A000834
:100050002D2A00082D2A00082D2A00082D2A000824
:100060002D2A00082D2A00082D2A00082D2A000814
:100070002D2A00082D2A00082D2A00082D2A000804
:100080002D2A00082D2A00082D2A00082D2A0008F4
:100090002D2A00082D2A00082D2A00082D2A0008E4
:1000A0002D2A00082D2A00082D2A00082D2A0008D4
:1000B0002D2A00082D2A00082D2A00082D2A0008C4
:1000C0002D2A00082D2A00082D2A00082D2A0008B4
:1000D0002D2A00082D2A00082D2A00082D2A0008A4
:1000E0002D2A00082D2A00082D2A00082D2A000894
:1000F0002D2A00082D2A00082D2A00082D2A000884
:100100002D2A00082D2A00082D2A00082D2A000873
:100110002D2A00082D2A00082D2A00082D2A000863
:100120002D2A00082D2A00082D2A00082D2A000853
:100130002D2A00082D2A00082D2A00082D2A000843
:100140002D2A00082D2A00082D2A00082D2A000833
:100150002D2A00082D2A00082D2A00082D2A000823
:100160002D2A00082D2A00082D2A00082D2A000813
:100170002D2A00082D2A00082D2A00080000000062
:080180002D2A00082D2A0008B9
:1001900010B5054C237833B9044B13B10448AFF3C1
:1001A00000800123237010BD1C000020000000000F
:1001B000DC2C000808B5034B1BB103490348AFF31F
:1001C000008008BD0000000020000020DC2C00089A
:1001D00080B489B000AF7860396000237B61002370
:1001E0003B610023BB610023FB616BE10122FB69E2
:1001F00002FA03F37B613B681B687A6913403B6139
:100200003A697B699A4240F05A813B685B68022BED
:1002100003D03B685B68122B23D1FB69DA087B684B
:10022000083253F82230BB61FB6903F007039B00DF
:100230000F2202FA03F3DB43BA691340BB613B6848
:100240001A69FB6903F007039B0002FA03F3BA691A
:100250001343BB61FB69DA087B680832B96943F86C
:1002600022107B681B68BB61FB695B00032202FAFA
:1002700003F3DB43BA691340BB613B685B6803F07F
:100280000302FB695B0002FA03F3BA691343BB6123
:100290007B68BA691A603B685B68012B0BD03B68CE
:1002A0005B68022B07D03B685B68112B03D03B686F
:1002B0005B68122B30D17B689B68BB61FB695B007C
:1002C000032202FA03F3DB43BA691340BB613B68C4
:1002D000DA68FB695B0002FA03F3BA691343BB6196
:1002E0007B68BA699A607B685B68BB610122FB69C5
:1002F00002FA03F3DB43BA691340BB613B685B68F6
:100300001B0903F00102FB6902FA03F3BA69134304
:10031000BB617B68BA695A607B68DB68BB61FB695B
:100320005B00032202FA03F3DB43BA691340BB61AB
:100330003B689A68FB695B0002FA03F3BA691343EE
:10034000BB617B68BA69DA603B685B6803F0805325
:10035000002B00F0B4800023FB605F4B5B6C5E4AB7
:1003600043F4804353645C4B5B6C03F48043FB6059
:10037000FB685A4AFB699B08023352F82330BB6181
:10038000FB6903F003039B000F2202FA03F3DB4334
:10039000BA691340BB617B68514A93422BD07B689A
:1003A000504A934225D07B684F4A93421FD07B68C6
:1003B0004E4A934219D07B684D4A934213D07B68D2
:1003C0004C4A93420DD07B684B4A934207D07B68DE
:1003D0004A4A934201D107230EE008230CE006238A
:1003E0000AE0052308E0042306E0032304E00223D7
:1003F00002E0012300E00023FA6902F00302920008
:100400009340BA691343BB613449FB699B080233CB
:10041000BA6941F823203A4B1B68BB613B69DB4357
:10042000BA691340BB613B685B6803F48033002BFF
:1004300003D0BA693B691343BB61314ABB6913609E
:100440002F4B5B68BB613B69DB43BA691340BB61FF
:100450003B685B6803F40033002B03D0BA693B6947
:100460001343BB61264ABB695360254B9B68BB6144
:100470003B69DB43BA691340BB613B685B6803F4CB
:100480008013002B03D0BA693B691343BB611C4A3C
:10049000BB6993601A4BDB68BB613B69DB43BA699C
:1004A0001340BB613B685B6803F40013002B03D06F
:1004B000BA693B691343BB61114ABB69D360FB69ED
:1004C0000133FB61FB690F2B7FF690AE00BF00BFCD
:1004D0002437BD4680BC70470038024000380140D8
:1004E000000002400004024000080240000C0240EC
:1004F000001002400014024000180240001C02409C
:10050000003C014080B483B000AF78600B467B8034
:1005100013467B707B78002B03D07A887B689A61C6
:1005200003E07B881A047B689A6100BF0C37BD46E4
:1005300080BC704780B483B000AF78600B467B808E
:100540007B685A697B881A407B889A4204D17B88F1
:100550001A047B689A6102E07A887B689A6100BF1E
:100560000C37BD4680BC704780B588B000AF78605E
:1005700000237B6101F094FA3D4B1B68002B04D1F2
:1005800000F0BAF83A4B01221A607B68002B0ED0BB
:1005900008231A467B6813447B607B6803F00703DB
:1005A000002B04D07B6823F0070308337B607B6853
:1005B000002B56D07B682F4A934252D82E4BBB61FA
:1005C0002D4B1B68FB6104E0FB69BB61FB691B6889
:1005D000FB61FB695B687A689A4203D9FB691B6817
:1005E000002BF1D1FB69254A93423AD0BB691B68C5
:1005F000082213447B61FB691A68BB691A60FB69B6
:100600005A687B68D31A08225200934222D9FA69A9
:100610007B681344FB60FB695A687B68D21AFB68ED
:100620005A60FB697A685A60FB685B68BB60124B72
:100630003B6102E03B691B683B613B691B685B688F
:10064000BA689A42F6D83B691A68FB681A603B6937
:10065000FA681A600A4B1A68FB695B68D31A084A81
:10066000136001F02BFA7B6918462037BD4680BD28
:10067000482C0120F72B0100382C0120402C0120B0
:100680000000002080B586B000AF78607B683B61D9
:100690007B68002B27D008235B423A6913443B61F7
:1006A0003B69FB6001F0FCF9FB685B68BB60104BC9
:1006B0007B6102E07B691B687B617B691B685B680F
:1006C000BA689A42F6D87B691A68FB681A607B6937
:1006D000FA681A60FB685A68064B1B681344054A9F
:1006E000136001F0EBF900BF1837BD4680BD00BFB5
:1006F000382C01200000002080B483B000AF0E4BE6
:1007000023F007037B600D4A7B6813600B4B0022CC
:100710005A600B4B0B4A5A60094B00221A607B68E7
:100720003B603B68074A5A603B68054A1A6000BF55
:100730000C37BD4680BC704740000020382C01209B
:10074000402C0120F82B010080B485B000AFF86088
:10075000B9607A60FB68043BFB60FB684FF0807215
:100760001A60FB68043BFB60BB6823F00102FB6876
:100770001A60FB68043BFB60084AFB681A60FB6870
:10078000143BFB607A68FB681A60FB68203BFB60E7
:10079000FB6818461437BD4680BC7047A1070008A7
:1007A00080B485B000AF00237B60124B1B68B3F1AF
:1007B000FF3F0AD04FF0500383F31188BFF36F8FD0
:1007C000BFF34F8FFB6000BFFEE74FF0500383F392
:1007D0001188BFF36F8FBFF34F8FBB6000BF00BFA7
:1007E0007B68002BFCD000BF00BF1437BD4680BC27
:1007F000704700BF0400002000000000000000005F
:10080000074B19680868B0E8F00F80F30988BFF358
:100810006F8F4FF0000080F311884EF00D0E70477F
:10082000542C012000BF00BF06480068006880F318
:10083000088862B661B6BFF34F8FBFF36F8F00DFDA
:1008400000BF000008ED00E000BF00BF80B584B02D
:1008500000AF294BFB60FB681B78DBB2BB60FB6819
:10086000FF221A70FB681B78DBB2FB71FB79DBB2ED
:1008700003F05003DAB2214B1A70214B07221A60A1
:1008800009E01F4B1B68013B1D4A1360FB79DBB27B
:100890005B00DBB2FB71FB79DBB203F08003802BE2
:1008A000EFD0174B1B681B02154A1360144B1B68D3
:1008B00003F4E063124A1360BB68DAB2FB681A7093
:1008C000104B1B680F4A43F4700313600D4B1B68F9
:1008D0000C4A43F07043136000F0B8F80A4B002252
:1008E0001A60FFF7A1FF01F041FAFFF759FF00235B
:1008F00018461037BD4680BD00E400E04C2C0120B6
:10090000502C012020ED00E00400002080B483B0D2
:1009100000AF4FF0500383F31188BFF36F8FBFF325
:100920004F8F7B6000BF0F4B1B6801330D4A136074
:100930000C4B1B68012B0FD10B4B1B68DBB2002B40
:100940000AD04FF0500383F31188BFF36F8FBFF3CA
:100950004F8F3B6000BFFEE700BF0C37BD4680BC39
:10096000704700BF0400002004ED00E080B483B0B5
:1009700000AF114B1B68002B0AD14FF0500383F3DB
:100980001188BFF36F8FBFF34F8F7B6000BFFEE70F
:10099000094B1B68013B084A1360074B1B68002B7F
:1009A00005D100233B603B6883F3118800BF00BF83
:1009B0000C37BD4680BC70470400002000000000DA
:1009C000EFF30980BFF36F8F0D4B1A6820E9F00F2A
:1009D00010602DE908404FF0500080F3118801F0BD
:1009E000C5F94FF0000080F31188BDE80840196890
:1009F0000868B0E8F00F80F30988BFF36F8F704785
:100A0000542C012000BF00BF80B582B000AF4FF072
:100A1000500383F31188BFF36F8FBFF34F8F7B6059
:100A200000BF01F0F7F80346002B03D0064B4FF050
:100A300080521A6000233B603B6883F3118800BF3B
:100A400000BF0837BD4680BD04ED00E080B400AFB4
:100A50000A4B00221A600A4B00221A60094B1B68DD
:100A6000094AA2FB03239B09084A013B1360034B7D
:100A700007221A6000BFBD4680BC704710E000E04E
:100A800018E000E018000020D34D621014E000E0F0
:100A900080B485B000AFEFF30583FB60FB680F2BDC
:100AA00014D9164AFB6813441B78FB72144B1B784D
:100AB000FA7A9A420AD24FF0500383F31188BFF3B7
:100AC0006F8FBFF34F8F7B6000BFFEE70D4B1B683E
:100AD00003F4E0620C4B1B689A420AD94FF05003B2
:100AE00083F31188BFF36F8FBFF34F8F3B6000BF5D
:100AF000FEE700BF1437BD4680BC7047F0E300E05E
:100B00004C2C01200CED00E0502C012080B483B06F
:100B100000AF78607B6803F108027B685A607B68ED
:100B20004FF0FF329A607B6803F108027B68DA605D
:100B30007B6803F108027B681A617B6800221A60F7
:100B400000BF0C37BD4680BC704780B483B000AF97
:100B500078607B6800221A6100BF0C37BD4680BCFC
:100B6000704780B485B000AF786039607B685B689F
:100B7000FB603B68FA685A60FB689A683B689A6059
:100B8000FB689B683A685A60FB683A689A603B6801
:100B90007A681A617B681B685A1C7B681A6000BF00
:100BA0001437BD4680BC704780B485B000AF786014
:100BB00039603B681B68BB60BB68B3F1FF3F03D182
:100BC0007B681B69FB600CE07B680833FB6002E01C
:100BD000FB685B68FB60FB685B681B68BA689A42ED
:100BE000F6D2FB685A683B685A603B685B683A68B3
:100BF0009A603B68FA689A60FB683A685A603B689A
:100C00007A681A617B681B685A1C7B681A6000BF8F
:100C10001437BD4680BC704780B485B000AF7860A3
:100C20007B681B69FB607B685B687A6892689A6086
:100C30007B689B687A6852685A60FB685B687A6870
:100C40009A4203D17B689A68FB685A607B680022ED
:100C50001A61FB681B685A1EFB681A60FB681B68F8
:100C600018461437BD4680BC7047000080B584B07C
:100C700000AF786039607B68FB60FB68002B0AD1AD
:100C80004FF0500383F31188BFF36F8FBFF34F8F83
:100C9000BB6000BFFEE7FFF739FEFB681A68FB6820
:100CA000DB6BF968096C01FB03F31A44FB689A607B
:100CB000FB6800229A63FB681A68FB685A60FB684D
:100CC0001A68FB68DB6B013BF968096C01FB03F3F5
:100CD0001A44FB68DA60FB68FF2283F84420FB6853
:100CE000FF2283F845203B68002B14D1FB681B6969
:100CF000002B1AD0FB681033184601F0E3F80346C6
:100D0000002B12D00C4B4FF080521A60BFF34F8F64
:100D1000BFF36F8F09E0FB6810331846FFF7F6FE4C
:100D2000FB6824331846FFF7F1FEFFF71FFE01238F
:100D300018461037BD4680BD04ED00E080B58CB08C
:100D400002AFF860B9601346FB71FB68002B0AD153
:100D50004FF0500383F31188BFF36F8FBFF34F8FB2
:100D6000BB6100BFFEE7FB68BA6802FB03F37B626E
:100D7000BB68002B06D07A6ABB68B2FBF3F3FA6853
:100D80009A4201D1012300E00023002B0AD14FF049
:100D9000500383F31188BFF36F8FBFF34F8F7B61D5
:100DA00000BFFEE77B6A50331846FFF7DDFB386271
:100DB0003B6A002B0DD03B6AFB61FB695033FB6142
:100DC000FA793B6A00931346FA69B968F86800F04B
:100DD00005F83B6A18462837BD4680BD80B584B00B
:100DE00000AFF860B9607A60FB70BB68002B03D17C
:100DF000BB69BA691A6002E0BB697A681A60BB69AC
:100E0000FA68DA63BB69BA681A640121B869FFF746
:100E10002DFFBB69FA7883F84C2000BF1037BD4620
:100E200080BD000080B58EB000AFF860B9607A6018
:100E30003B6000237B63FB683B633B6B002B0AD169
:100E40004FF0500383F31188BFF36F8FBFF34F8FC1
:100E5000BB6200BFFEE7BB68002B03D13B6B1B6C82
:100E6000002B01D1012300E00023002B0AD14FF019
:100E7000500383F31188BFF36F8FBFF34F8F7B62F3
:100E800000BFFEE73B68022B03D13B6BDB6B012B02
:100E900001D1012300E00023002B0AD14FF05003C1
:100EA00083F31188BFF36F8FBFF34F8F3B6200BF97
:100EB000FEE701F0A3F90346002B02D17B68002B6B
:100EC00001D1012300E00023002B0AD14FF0500391
:100ED00083F31188BFF36F8FBFF34F8FFB6100BFA8
:100EE000FEE7FFF713FD3B6B9A6B3B6BDB6B9A42A4
:100EF00002D33B68022B29D13A68B968386B00F0FD
:100F000019FAF8623B6B5B6A002B10D03B6B243301
:100F1000184600F0D7FF0346002B13D03F4B4FF08D
:100F200080521A60BFF34F8FBFF36F8F0AE0FB6AE6
:100F3000002B07D0394B4FF080521A60BFF34F8F10
:100F4000BFF36F8FFFF712FD012363E07B68002B77
:100F500003D1FFF70BFD00235CE07B6B002B06D178
:100F600007F11403184601F011F801237B63FFF722
:100F7000FDFC00F095FDFFF7C9FC3B6B93F8443096
:100F80005BB2B3F1FF3F03D13B6B002283F84420F7
:100F90003B6B93F845305BB2B3F1FF3F03D13B6B42
:100FA000002283F84520FFF7E1FC3A1D07F1140306
:100FB0001146184601F000F80346002B24D1386B87
:100FC00000F0B0FA0346002B18D03B6B10337A6860
:100FD0001146184600F026FF386B00F03BFA00F08F
:100FE0006DFD0346002B7FF47CAF0C4B4FF080521D
:100FF0001A60BFF34F8FBFF36F8F72E7386B00F04B
:1010000029FA00F05BFD6CE7386B00F023FA00F082
:1010100055FD002318463837BD4680BD04ED00E07D
:1010200080B590B000AFF860B9607A603B60FB6853
:10103000BB63BB6B002B0AD14FF0500383F31188C5
:10104000BFF36F8FBFF34F8FBB6200BFFEE7BB687C
:10105000002B03D1BB6B1B6C002B01D1012300E0E3
:101060000023002B0AD14FF0500383F31188BFF304
:101070006F8FBFF34F8F7B6200BFFEE73B68022B91
:1010800003D1BB6BDB6B012B01D1012300E00023FB
:10109000002B0AD14FF0500383F31188BFF36F8FF9
:1010A000BFF34F8F3B6200BFFEE7FFF7F1FCEFF3AA
:1010B00011824FF0500383F31188BFF36F8FBFF39A
:1010C0004F8FFA61BB61FB697B63BB6B9A6BBB6B38
:1010D000DB6B9A4202D33B68022B3ED1BB6B93F889
:1010E000453087F83330BB6B9B6BFB623A68B9685D
:1010F000B86B00F01FF997F93330B3F1FF3F12D10D
:10110000BB6B5B6A002B25D0BB6B2433184600F009
:10111000D9FE0346002B1DD07B68002B1AD07B68BC
:1011200001221A6016E097F933307F2B0AD14FF075
:10113000500383F31188BFF36F8FBFF34F8F7B6131
:1011400000BFFEE797F833300133DBB25AB2BB6B16
:1011500083F845200123FB6301E00023FB637B6BE5
:101160003B613B6983F3118800BFFB6B1846403736
:10117000BD4680BD80B58CB000AFF860B9607A60C4
:101180000023FB62FB68BB62BB6A002B0AD14FF0F5
:10119000500383F31188BFF36F8FBFF34F8F3B6210
:1011A00000BFFEE7BB68002B03D1BB6A1B6C002BA2
:1011B00001D1012300E00023002B0AD14FF050039E
:1011C00083F31188BFF36F8FBFF34F8FFB6100BFB5
:1011D000FEE701F013F80346002B02D17B68002BD9
:1011E00001D1012300E00023002B0AD14FF050036E
:1011F00083F31188BFF36F8FBFF34F8FBB6100BFC5
:10120000FEE7FFF783FBBB6A9B6B7B627B6A002B6D
:101210001FD0B968B86A00F0F7F87B6A5A1EBB6A3B
:101220009A63BB6A1B69002B0FD0BB6A1033184648
:1012300000F048FE0346002B07D03D4B4FF0805294
:101240001A60BFF34F8FBFF36F8FFFF78FFB012340
:1012500069E07B68002B03D1FFF788FB002362E085
:10126000FB6A002B06D107F11003184600F08EFE32
:101270000123FB62FFF77AFB00F012FCFFF746FB4D
:10128000BB6A93F844305BB2B3F1FF3F03D1BB6A52
:10129000002283F84420BB6A93F845305BB2B3F177
:1012A000FF3F03D1BB6A002283F84520FFF75EFBB6
:1012B0003A1D07F110031146184600F07DFE034663
:1012C000002B23D1B86A00F017F90346002B17D082
:1012D000BB6A24337A681146184600F0A3FDB86A49
:1012E00000F0B8F800F0EAFB0346002B89D1104B60
:1012F0004FF080521A60BFF34F8FBFF36F8F80E7BC
:10130000B86A00F0A7F800F0D9FB7AE7B86A00F0F5
:10131000A1F800F0D3FBB86A00F0EEF80346002B0A
:101320003FF46FAF002318463037BD4680BD00BF85
:1013300004ED00E080B586B000AFF860B9607A6077
:1013400000237B61FB689B6B3B61FB681B6C002B84
:101350000DD1FB681B68002B4DD1FB689B681846BC
:1013600000F06AFF7861FB6800229A6043E07B68C6
:10137000002B19D1FB685868FB681B6C1A46B968CA
:1013800001F096FCFB685A68FB681B6C1A44FB680A
:101390005A60FB685A68FB689B689A422BD3FB68CB
:1013A0001A68FB685A6026E0FB68D868FB681B6C0B
:1013B0001A46B96801F07CFCFB68DA68FB681B6CB4
:1013C0005B421A44FB68DA60FB68DA68FB681B68FA
:1013D0009A4207D2FB689A68FB681B6C5B421A440E
:1013E000FB68DA607B68022B05D13B69002B02D0D9
:1013F0003B69013B3B613B695A1CFB689A637B6913
:1014000018461837BD4680BD80B582B000AF786001
:1014100039607B681B6C002B18D07B68DA687B68AE
:101420001B6C1A447B68DA607B68DA687B689B68AF
:101430009A4203D37B681A687B68DA607B68D96854
:101440007B681B6C1A46386801F032FC00BF083715
:10145000BD4680BD80B584B000AF7860FFF756FA16
:101460007B6893F84530FB7311E07B685B6A002B67
:1014700012D07B682433184600F024FD0346002B6D
:1014800001D000F0FFFDFB7B013BDBB2FB7397F962
:101490000F30002BE9DC00E000BF7B68FF2283F8FF
:1014A0004520FFF763FAFFF731FA7B6893F8443081
:1014B000BB7311E07B681B69002B12D07B68103373
:1014C000184600F0FFFC0346002B01D000F0DAFDC7
:1014D000BB7B013BDBB2BB7397F90E30002BE9DC21
:1014E00000E000BF7B68FF2283F84420FFF73EFA4C
:1014F00000BF1037BD4680BD80B584B000AF7860B6
:10150000FFF704FA7B689B6B002B02D10123FB6081
:1015100001E00023FB60FFF729FAFB68184610374B
:10152000BD4680BD80B584B000AF7860FFF7EEF9AE
:101530007B689A6B7B68DB6B9A4202D10123FB606C
:1015400001E00023FB60FFF711FAFB681846103733
:10155000BD4680BD80B485B000AF7860396000239F
:10156000FB6014E00E4AFB6852F83330002B0BD1BD
:101570000B49FB683A6841F83320094AFB68DB00F5
:1015800013447A685A6006E0FB680133FB60FB682D
:10159000072BE7D900BF00BF1437BD4680BC70479A
:1015A000942D012080B586B000AFF860B9607A60F4
:1015B000FB687B61FFF7AAF97B6993F844305BB263
:1015C000B3F1FF3F03D17B69002283F844207B699C
:1015D00093F845305BB2B3F1FF3F03D17B69002242
:1015E00083F84520FFF7C2F97B699B6B002B06D17E
:1015F0007B6924337A68B968184600F037FC78694B
:10160000FFF728FF00BF1837BD4680BD80B58CB0FE
:1016100004AFF860B9603B601346FB80FB889B0019
:101620001846FEF7A1FF78617B69002B0ED0582089
:10163000FEF79AFFF861FB69002B03D0FB697A691A
:101640001A6305E07869FFF71DF801E00023FB61EC
:10165000FB69002B13D0FA8800230393FB690293E4
:10166000FB6A0193BB6A00933B68B968F86800F0B5
:101670000EF8F86900F0A4F80123BB6102E04FF016
:10168000FF33BB61BB6918462037BD4680BD80B5BE
:1016900088B000AFF860B9607A603B603B6B186B54
:1016A0007B689B001A46A52101F010FB3B6B1A6B6F
:1016B0007B6803F18043013B9B001344BB61BB6922
:1016C00023F00703BB61BB6903F00703002B0AD0BB
:1016D0004FF0500383F31188BFF36F8FBFF34F8F29
:1016E0007B6100BFFEE7BB68002B21D00023FB61BC
:1016F00014E0BA68FB69134493F900103A6BFB6974
:10170000134434330A461A70BA68FB69134493F9D8
:101710000030002B06D0FB690133FB61FB69092B0C
:10172000E7D900E000BF3B6B002283F83D2003E0D7
:101730003B6B002283F83420BB6A042B01D90423BD
:10174000BB623B6BBA6ADA623B6BBA6A9A643B6B08
:101750000022DA643B6B04331846FFF7F6F93B6B63
:1017600018331846FFF7F1F93B6B3A6B1A61BB6A05
:10177000C3F105023B6B9A613B6B3A6B5A623B6B60
:10178000503304220021184601F0A0FA3B6B543379
:1017900001220021184601F099FA3A68F968B869FF
:1017A000FEF7D2FF02463B6B1A60FB6A002B02D0A9
:1017B000FB6A3A6B1A6000BF2037BD4680BD00004F
:1017C00080B582B000AF7860FFF7A0F82D4B1B68A2
:1017D00001332C4A13602C4B1B68002B09D12A4A79
:1017E0007B681360274B1B68012B10D100F06EFC47
:1017F0000DE0264B1B68002B09D1234B1B68DA6ACE
:101800007B68DB6A9A4202D81F4A7B681360204BD0
:101810001B6801331E4A13601D4B1A687B681A64EB
:101820007B68DA6A1B4B1B689A4203D97B68DB6AC8
:10183000184A13607B68DA6A13469B0013449B00C6
:10184000154A1A447B68043319461046FFF789F994
:10185000FFF78CF80D4B1B68002B0ED00A4B1B6852
:10186000DA6A7B68DB6A9A4207D20C4B4FF08052EF
:101870001A60BFF34F8FBFF36F8F00BF0837BD46AD
:1018800080BD00BF2C2D0120542C0120382D0120BB
:10189000482D0120342D0120582C012004ED00E0BA
:1018A00080B58AB000AF7860396000237B627B68C6
:1018B000002B0AD14FF0500383F31188BFF36F8FD1
:1018C000BFF34F8F7B6100BFFEE73B68002B0AD15F
:1018D0004FF0500383F31188BFF36F8FBFF34F8F27
:1018E0003B6100BFFEE72A4B1B68002B0AD04FF07C
:1018F000500383F31188BFF36F8FBFF34F8FFB60EB
:1019000000BFFEE700F0CCF8224B1B683B627B680F
:101910001B683A681344FB617B681B683A6A9A4209
:101920000BD27B681B68FA699A4211D2FA693B6A4A
:101930009A420DD901237B620AE07B681B68FA6931
:101940009A4203D3FA693B6A9A4201D901237B6226
:101950007B68FA691A607B6A002B06D0FA693B6AD9
:10196000D31A0021184600F0D5FC00F0A7F8B861A2
:10197000BB69002B07D1084B4FF080521A60BFF3B0
:101980004F8FBFF36F8F00BF2837BD4680BD00BFAC
:10199000542D0120302D012004ED00E080B584B0ED
:1019A00000AF78600023FB607B68002B17D0134BDF
:1019B0001B68002B0AD04FF0500383F31188BFF34C
:1019C0006F8FBFF34F8FBB6000BFFEE700F068F87A
:1019D0000021786800F09EFC00F070F8F860FB6869
:1019E000002B07D1064B4FF080521A60BFF34F8F88
:1019F000BFF36F8F00BF1037BD4680BD542D01204F
:101A000004ED00E080B586B002AF1F4B01930023C8
:101A10000093002382221D491D48FFF7F7FDF8605F
:101A2000FB68012B02D100F0C9FCF860FB68012BB8
:101A300016D14FF0500383F31188BFF36F8FBFF3BC
:101A40004F8FBB6000BF134B4FF0FF321A60124B39
:101A500001221A60114B00221A60FEF7F7FE0EE019
:101A6000FB68B3F1FF3F0AD14FF0500383F31188B5
:101A7000BFF36F8FBFF34F8F7B6000BFFEE700BFE8
:101A80001037BD4680BD00BF502D0120F42C00084A
:101A90009D2000084C2D0120382D0120302D0120E3
:101AA00080B400AF044B1B680133034A136000BFCE
:101AB000BD4680BC704700BF542D012080B584B066
:101AC00000AF0023FB600023BB60424B1B68002B70
:101AD0000AD14FF0500383F31188BFF36F8FBFF328
:101AE0004F8F3B6000BFFEE7FEF710FF394B1B68CE
:101AF000013B384A1360374B1B68002B62D1364BD1
:101B00001B68002B5ED02FE0344BDB68DB68FB608A
:101B1000FB6818331846FFF77FF8FB680433184654
:101B2000FFF77AF8FB68DA6A2D4B1B689A4203D9F3
:101B3000FB68DB6A2A4A1360FB68DA6A13469B007B
:101B400013449B00274A1A44FB6804331946104685
:101B5000FFF707F8FB68DA6A234B1B68DB6A9A42D7
:101B600002D3224B01221A601C4B1B68002BCBD1E5
:101B7000FB68002B01D000F027FB1D4B1B687B602E
:101B80007B68002B10D000F045F80346002B02D0F4
:101B9000164B01221A607B68013B7B607B68002B3F
:101BA000F1D1134B00221A60104B1B68002B09D097
:101BB0000123BB600F4B4FF080521A60BFF34F8F71
:101BC000BFF36F8FFEF7D2FEBB6818461037BD46D5
:101BD00080BD00BF542D01202C2D0120EC2C0120B4
:101BE000342D0120582C0120542C0120402D01209F
:101BF0003C2D012004ED00E080B483B000AF044B25
:101C00001B687B607B6818460C37BD4680BC7047FC
:101C1000302D012080B586B000AF00237B61484B9A
:101C20001B68002B40F08180464B1B6801333B61F1
:101C3000444A3B6913603B69002B20D1424B1B682F
:101C40001B68002B0AD04FF0500383F31188BFF3B9
:101C50006F8FBFF34F8F3B6000BFFEE73A4B1B68AF
:101C6000FB603A4B1B68384A1360384AFB681360C4
:101C7000374B1B680133364A136000F0A5FA354B29
:101C80001B683A699A4249D32F4B1B681B68002B8B
:101C900004D1304B4FF0FF321A603FE02A4B1B68F3
:101CA000DB68DB68BB60BB685B687B603A697B684C
:101CB0009A4203D2274A7B6813602FE0BB68043343
:101CC0001846FEF7A9FFBB689B6A002B04D0BB68CF
:101CD00018331846FEF7A0FFBB68DA6A1E4B1B6874
:101CE0009A4203D9BB68DB6A1B4A1360BB68DA6A95
:101CF00013469B0013449B00184A1A44BB680433E4
:101D000019461046FEF72DFFBB68DA6A144B1B68B4
:101D1000DB6A9A42B8D301237B61B5E7114B1B689C
:101D2000002B07D001237B6104E00F4B1B680133BC
:101D30000D4A13607B6918461837BD4680BD00BF49
:101D4000542D0120302D0120E42C0120E82C01200D
:101D5000442D01204C2D0120342D0120582C012030
:101D6000542C0120402D01203C2D012080B485B051
:101D700000AF274B1B68002B03D0264B01221A60B3
:101D800041E0244B00221A60234B1B68FB6010E0EB
:101D9000FB68002B0AD14FF0500383F31188BFF387
:101DA0006F8FBFF34F8F7B6000BFFEE7FB68013B87
:101DB000FB601A49FA6813469B0013449B000B44CE
:101DC0001B68002BE4D0FA6813469B0013449B0069
:101DD000124A1344BB60BB685B685A68BB685A60B0
:101DE000BB685A68BB6808339A4204D1BB685B6819
:101DF0005A68BB685A60BB685B68DB68084A136056
:101E0000054AFB68136000BF1437BD4680BC7047AD
:101E1000542D0120402D0120342D0120582C01206B
:101E2000542C012080B584B000AF786039607B68A5
:101E3000002B0AD14FF0500383F31188BFF36F8F4B
:101E4000BFF34F8FFB6000BFFEE7074B1B681833E3
:101E500019467868FEF7A8FE0121386800F05AFAA2
:101E600000BF1037BD4680BD542C012080B586B020
:101E700000AFF860B9607A60FB68002B0AD14FF0C0
:101E8000500383F31188BFF36F8FBFF34F8F7B61D4
:101E900000BFFEE70A4B1B6818331946F868FEF7C7
:101EA00060FE7B68002B02D04FF0FF33BB60796887
:101EB000B86800F02FFA00BF1837BD4680BD00BFDC
:101EC000542C012080B586B000AF78607B68DB6859
:101ED000DB683B613B69002B0AD14FF0500383F371
:101EE0001188BFF36F8FBFF34F8FFB6000BFFEE71A
:101EF0003B6918331846FEF78FFE1E4B1B68002BFC
:101F00001DD13B6904331846FEF786FE3B69DA6A49
:101F1000194B1B689A4203D93B69DB6A164A136066
:101F20003B69DA6A13469B0013449B00134A1A4428
:101F30003B69043319461046FEF713FE05E03B6982
:101F4000183319460E48FEF70CFE3B69DA6A0D4B52
:101F50001B68DB6A9A4205D901237B610A4B012287
:101F60001A6001E000237B617B6918461837BD4683
:101F700080BD00BF542D0120342D0120582C01209C
:101F8000EC2C0120542C0120402D012080B483B082
:101F900000AF7860064B1A687B681A60054B1A68B8
:101FA0007B685A6000BF0C37BD4680BC704700BFDD
:101FB000442D0120302D012080B588B000AF78601D
:101FC00039607B68002B0AD14FF0500383F31188EE
:101FD000BFF36F8FBFF34F8F3B6100BFFEE73B68DE
:101FE000002B0AD14FF0500383F31188BFF36F8F9A
:101FF000BFF34F8FFB6000BFFEE7FEF787FC1F4B70
:102000001B68BB617B685B68BA69D31A7B613B68FC
:102010001B68B3F1FF3F02D10023FB6126E07B6820
:102020001A68174B1B689A420AD07B685B68BA69CA
:102030009A4205D30123FB613B6800221A6015E038
:102040003B681B687A699A420BD23B681A687B69C5
:10205000D21A3B681A607868FFF798FF0023FB618B
:1020600004E03B6800221A600123FB61FEF77EFC5E
:10207000FB6918462037BD4680BD00BF302D0120CA
:10208000442D012080B400AF034B01221A6000BF31
:10209000BD4680BC704700BF402D012080B582B096
:1020A00000AF786000F052F8064B1B68012BF9D99D
:1020B000054B4FF080521A60BFF34F8FBFF36F8F05
:1020C000F0E700BF582C012004ED00E080B582B09D
:1020D00000AF00237B600CE07A6813469B0013443A
:1020E0009B00124A13441846FEF710FD7B6801332B
:1020F0007B607B68042BEFD90D48FEF707FD0D4888
:10210000FEF704FD0C48FEF701FD0C48FEF7FEFC4F
:102110000B48FEF7FBFC0B4B054A1A600A4B054ABD
:102120001A6000BF0837BD4680BD00BF582C012093
:10213000BC2C0120D02C0120EC2C0120002D0120F2
:10214000182D0120E42C0120E82C012080B582B05C
:1021500000AF19E0FEF7DAFB104BDB68DB687B6051
:102160007B6804331846FEF757FD0D4B1B68013B97
:102170000B4A13600B4B1B68013B0A4A1360FEF7C6
:10218000F5FB786800F010F8064B1B68002BE1D1D6
:1021900000BF00BF0837BD4680BD00BF002D012035
:1021A0002C2D0120142D012080B582B000AF786065
:1021B0007B681B6B1846FEF765FA7868FEF762FAD3
:1021C00000BF0837BD4680BD80B400AF094B1B6817
:1021D0001B68002B04D1084B4FF0FF321A6005E05A
:1021E000044B1B68DB681B68034A136000BFBD46D5
:1021F00080BC7047E42C01204C2D012080B483B0BA
:1022000000AF0B4B1B68002B02D101237B6008E061
:10221000084B1B68002B02D102237B6001E00023E6
:102220007B607B6818460C37BD4680BC704700BF9A
:10223000382D0120542D012080B586B000AF786084
:102240007B683B6100237B617B68002B56D02E4B63
:102250001B683A699A420AD04FF0500383F3118801
:10226000BFF36F8FBFF34F8FFB6000BFFEE73B698B
:10227000DB6C002B0AD14FF0500383F31188BFF3BE
:102280006F8FBFF34F8FBB6000BFFEE73B69DB6C16
:102290005A1E3B69DA643B69DA6A3B699B6C9A4275
:1022A0002CD03B69DB6C002B28D13B6904331846EA
:1022B000FEF7B2FC3B699A6C3B69DA623B69DB6A08
:1022C000C3F105023B699A613B69DA6A0F4B1B68EF
:1022D0009A4203D93B69DB6A0C4A13603B69DA6AAC
:1022E00013469B0013449B00094A1A443B6904337C
:1022F00019461046FEF735FC01237B617B691846C1
:102300001837BD4680BD00BF542C0120342D01205C
:10231000582C012080B584B000AF78603960214B23
:102320001B68FB60204B1B6804331846FEF774FCE7
:102330007B68B3F1FF3F0AD13B68002B07D01A4BF3
:102340001B68043319461948FEF70BFC26E0FA68AF
:102350007B681344BB60144B1B68BA685A60BA6848
:10236000FB689A4209D2124B1A680F4B1B68043360
:1023700019461046FEF718FC10E00E4B1A680A4B7F
:102380001B68043319461046FEF70EFC0A4B1B6807
:10239000BA689A4202D2084ABB68136000BF10377D
:1023A000BD4680BD302D0120542C0120182D012068
:1023B000E82C0120E42C01204C2D012080B584B0B4
:1023C00002AF00237B6000F0D3FA114B1B68002B97
:1023D0000BD0104B01930223009300234FF4827221
:1023E0000D490E48FFF712F978607B68002B0AD17F
:1023F0004FF0500383F31188BFF36F8FBFF34F8FFC
:102400003B6000BFFEE77B6818460837BD4680BDCD
:10241000882D01208C2D0120FC2C0008552500085A
:1024200080B58AB000AFF860B9607A603B60002385
:102430007B62FB68002B0AD14FF0500383F31188B5
:10244000BFF36F8FBFF34F8F3B6200BFFEE71A4BA6
:102450001B68002B2AD0BB687B617B68BB61FB6873
:10246000FB61BB68052B18DCFFF7C8FE0346022B97
:1024700009D1114B186807F1140100233A6BFEF7DC
:10248000D1FC786212E00C4B186807F114010023AC
:102490000022FEF7C7FC786208E0074B186807F1D6
:1024A000140100233A68FEF7BBFD78627B6A184688
:1024B0002837BD4680BD00BF882D012080B588B07B
:1024C00002AF78603960224B1B68DB68DB687B6198
:1024D0007B6904331846FEF79FFB7B6993F828302D
:1024E00003F00403002B22D07B699A697B68D11822
:1024F0007B683A68786900F0CFF80346002B1FD05C
:102500000023009300237A6800217869FFF788FF91
:1025100038613B69002B13D14FF0500383F31188CE
:10252000BFF36F8FBFF34F8FFB6000BFFEE77B6988
:1025300093F8283023F00103DAB27B6983F828206E
:102540007B691B6A7869984700BF1837BD4680BD14
:10255000802D012080B584B000AF786007F10803BA
:10256000184600F057F8F860BB681946F86800F0A4
:1025700003F800F0D3F8F1E780B584B000AF7860DD
:102580003960FFF78DFA07F10803184600F064F888
:10259000F860BB68002B30D13B68002B0AD17A6809
:1025A000FB689A4206D8FFF789FAF9687868FFF75E
:1025B00085FF24E03B68002B08D0134B1B681B6889
:1025C000002B01D1012300E000233B600F4B186872
:1025D0007A68FB68D31A3A681946FEF7E3FFFFF7FB
:1025E0006DFA0346002B0AD1094B4FF080521A6056
:1025F000BFF34F8FBFF36F8F01E0FFF75FFA00BFAC
:102600001037BD4680BD00BF842D0120882D0120DC
:1026100004ED00E080B485B000AF78600D4B1B681E
:102620001B68002B01D1012200E000227B681A60A8
:102630007B681B68002B05D1064B1B68DB681B6899
:10264000FB6001E00023FB60FB6818461437BD46C1
:1026500080BC7047802D012080B584B000AF7860C9
:10266000FFF7CAFAF8600B4B1B68FA689A4205D26A
:1026700000F01AF97B6801221A6002E07B680022F0
:102680001A60044AFB681360FB6818461037BD46A1
:1026900080BD00BF902D012080B586B000AFF860EE
:1026A000B9607A603B6000237B61FB68BA685A605E
:1026B000FB68FA681A61BA687B689A4212D87A682D
:1026C0003B68D21AFB689B699A4202D301237B6163
:1026D0001BE0104B1A68FB68043319461046FEF7DE
:1026E00063FA12E07A683B689A4206D2BA683B689D
:1026F0009A4202D301237B6107E0074B1A68FB680B
:10270000043319461046FEF74FFA7B69184618370E
:10271000BD4680BD842D0120802D012080B58CB068
:1027200002AFAEE0BB68002BC0F2AA803B697B62BF
:102730007B6A5B69002B04D07B6A04331846FEF782
:102740006BFA3B1D1846FFF787FF3862BB68092B01
:1027500000F2978001A252F823F000BF85270008FD
:102760008527000885270008F92700080D2800089C
:10277000572800088527000885270008F927000842
:102780000D2800087B6A93F8283043F00103DAB281
:102790007B6A83F82820FA687B6A9B69D118FB68FA
:1027A0003A6A786AFFF778FF0346002B69D07B6AA4
:1027B0001B6A786A98477B6A93F8283003F0040311
:1027C000002B5ED0FA687B6A9B691A440023009351
:1027D00000230021786AFFF723FEF861FB69002BD4
:1027E0004FD14FF0500383F31188BFF36F8FBFF3C6
:1027F0004F8FBB6100BFFEE77B6A93F8283023F060
:102800000103DAB27B6A83F828203AE07B6A93F806
:10281000283043F00103DAB27B6A83F82820FA6893
:102820007B6A9A617B6A9B69002B0AD14FF0500347
:1028300083F31188BFF36F8FBFF34F8F7B6100BFAE
:10284000FEE77B6A9A693B6AD1183B6A3A6A786A02
:10285000FFF722FF15E07B6A93F8283003F00203AC
:10286000002B03D1786AFDF70DFF0AE07B6A93F82D
:10287000283023F00103DAB27B6A83F8282000E0D5
:1028800000BF084B1B6807F1080100221846FEF73D
:1028900071FC0346002B7FF445AF00BF00BF283713
:1028A000BD4680BD882D012080B588B002AF48E0CC
:1028B0002D4B1B68DB681B683B612B4B1B68DB687F
:1028C000DB68FB60FB6804331846FEF7A5F9FB687C
:1028D0001B6AF8689847FB6893F8283003F00403F4
:1028E000002B2ED0FB689B693A691344BB60BA6821
:1028F0003B699A420ED9FB68BA685A60FB68FA686D
:102900001A61194B1A68FB68043319461046FEF722
:102910004BF916E00023009300233A690021F86880
:10292000FFF77EFD78607B68002B0AD14FF05003E3
:1029300083F31188BFF36F8FBFF34F8F3B6000BFEE
:10294000FEE7094B1B681B68002BB1D1064B1B68C7
:102950007B61064B1B68044A1360044A7B69136061
:1029600000BF1837BD4680BD802D0120842D012079
:1029700080B500AFFDF7CAFF124B1B68002B1DD1BD
:102980001148FEF7C3F81148FEF7C0F8104B0E4A85
:102990001A60104B0D4A1A6000220C210A20FEF723
:1029A000CDF90346074A1360064B1B68002B05D080
:1029B000044B1B6808491846FEF7CCFDFDF7D6FF0F
:1029C00000BF80BD882D0120582D01206C2D0120D5
:1029D000802D0120842D0120042D0008DFF834D043
:1029E000002103E00C4B5B58435004310B480C4B67
:1029F00042189A42F6D30B4A02E0002342F8043B05
:102A0000094B9A42F9D300F0A5F800F02DF900F037
:102A1000F3F8704700000220342D00080000002069
:102A20001C0000201C000020D42D0120FEE7000027
:102A300080B58CB000AF0346FB71FB79002B0ED143
:102A40000023BB61334B1B6B324A43F00803136313
:102A5000304B1B6B03F00803BB61BB6934E0FB79AF
:102A6000012B0ED100237B612A4B1B6B294A43F0BB
:102A700008031363274B1B6B03F008037B617B691F
:102A800022E0FB79022B0ED100233B61214B1B6B13
:102A9000204A43F0080313631E4B1B6B03F008032B
:102AA0003B613B6910E0FB79032B0DD10023FB60F8
:102AB000184B1B6B174A43F008031363154B1B6B32
:102AC00003F00803FB60FB68FB79134A32F813300C
:102AD000FB6101233B6201237B620223BB62FB7922
:102AE0000E4A52F8233007F11C0211461846FDF732
:102AF0006FFBFB79094A52F82300FB79064A32F84A
:102B0000133000221946FDF7FDFC00BF3037BD46EB
:102B100080BD00BF00380240242D000808000020BE
:102B200080B582B000AF0346FB71FB79074A52F8CB
:102B30002320FB79064931F8133019461046FDF77A
:102B4000F9FC00BF0837BD4680BD00BF080000206B
:102B5000242D000880B400AF124B1B68114A43F0CB
:102B6000010313600F4B00229A600E4B1B680D4A45
:102B700023F0847323F4803313600A4B0A4A5A60AB
:102B8000084B1B68074A23F480231360054B00227F
:102B9000DA60064B4FF000629A6000BFBD4680BC11
:102BA000704700BF003802401030002400ED00E004
:102BB00080B584B000AF78604FF4FA73FB600020FA
:102BC000FFF7AEFFF868FEF7E9FEF8E780B584B0DE
:102BD00000AF78604FF4FA73FB60FFF70DF803461F
:102BE000BB600220FFF79CFF07F10803F968184655
:102BF000FEF756FEF5E7000080B584B002AF002373
:102C00007B60144B1B6B134A43F008031363114B97
:102C10001B6B03F008037B607B680020FFF708FF55
:102C20000220FFF705FF00230193002300930023F8
:102C3000822209490948FEF7E9FC00230193002399
:102C400000930023822206490648FEF7DFFCFEF7C8
:102C5000D9FEFEE7003802400C2D0008B12B000819
:102C6000182D0008CD2B000870B500260C4D0D4C1A
:102C7000641BA410A64209D100F030F800260A4DCA
:102C80000A4C641BA410A64205D170BD55F8043B44
:102C900098470136EEE755F8043B98470136F2E7CE
:102CA0002C2D00082C2D00082C2D0008302D00089C
:102CB0000A44914200F1FF3300D1704710B511F87A
:102CC000014B914203F8014FF9D110BD0346024474
:102CD000934200D1704703F8011BF9E7F8B500BF34
:102CE000F8BC08BC9E467047F8B500BFF8BC08BCED
:042CF0009E46704745
:102CF40049444C4500000000546D72205376630033
:102D0400546D72510000000076426C696E6B4C4544
:102D14004434000076426C696E6B4C4544350000C7
:082D24000010002000400080B7
:042D2C00B5010008E5
:042D30009101000805
:102D3400F82B0100AAAAAAAA000C0240000C024027
:0C2D4400000C0240000C02400024F400CF
:04000005080029DDE9
:00000001FF
